:020000040800F2
:100000000050002011150008B1020008B3020008DA
:10001000B5020008B7020008B9020008000000009D
:10002000000000000000000000000000BB0200080B
:10003000BD02000800000000BF020008C102000865
:1000400059150008591500085915000859150008D8
:1000500059150008591500085915000859150008C8
:1000600059150008591500085915000859150008B8
:1000700059150008591500085915000859150008A8
:100080005915000859150008591500085915000898
:100090005915000859150008591500085915000888
:1000A0005915000859150008591500085915000878
:1000B000C90200085915000859150008591500080B
:1000C0005915000859150008591500085915000858
:1000D0005915000859150008591500085915000848
:1000E00059150008591500085915000800000000AE
:1000F0000000000000000000000000000000000000
:0C01000000000000000000005FF808F1A3
:10010C0010B5054C237833B9044B13B10448AFF345
:10011C0000800123237010BD0C00002000000000A3
:10012C00B415000808B5034B1BB103490348AFF3E2
:10013C00008008BD0000000010000020B41500086D
:10014C0082B0064B9A6942F004029A619B6903F0F3
:10015C0004030193019B02B0704700BF00100240E2
:10016C0072B6FEE700B58FB000230A930B930C9385
:10017C000D930893099301930293039304930593AE
:10018C00069307931F484FF080420260232242607F
:10019C0083606322C2600361836100F0A9FA30BB03
:1001AC004FF480530A930AA9164800F09FFB00BB3A
:1001BC00144800F0C9FAF0B900230893099308A970
:1001CC00104800F07DFCC0B960230193002302931A
:1001DC000393059304220DEB02010A4800F012FB75
:1001EC0068B9084800F0B2F80FB05DF804FBFFF7EF
:1001FC00B7FFFFF7B5FFFFF7B3FFFFF7B1FFFFF74F
:10020C00AFFF00BF2800002000B591B028220021CC
:10021C0006A801F0C1F90023019302930393049300
:10022C0005930223069301220A9210220B920D933E
:10023C004FF4E0130F9306A800F0EEFC88B90F23DF
:10024C00019302230293002303934FF480620492E0
:10025C000593012101A800F01FFF20B911B05DF832
:10026C0004FBFFF77DFFFFF77BFF000010B500F0EC
:10027C0085FCFFF7C9FFFFF763FFFFF773FF04214E
:10028C00074800F0AFFB08E0054B1B689C6332206D
:10029C0000F098FC0134632CF6DD0024FBE700BF72
:1002AC0028000020FEE7FEE7FEE7FEE7FEE77047CA
:1002BC007047704708B500F073FC08BD08B50248DC
:1002CC0000F01FF908BD00BF2800002082B00E4BC3
:1002DC009A6942F001029A619A6902F00102009255
:1002EC00009ADA6942F08052DA61DB6903F08053DC
:1002FC000193019B054A536823F0E06343F00073BC
:10030C00536002B0704700BF001002400000014073
:10031C000368B3F1804F00D0704700B583B003F58C
:10032C000433DA6942F00102DA61DB6903F001039C
:10033C000193019B002202211C2001F087F81C2054
:10034C0001F0BCF803B05DF804FB000000B587B009
:10035C00002302930393049305930368B3F1804F36
:10036C0002D007B05DF804FB03F504339A6942F040
:10037C0004029A619B6903F004030193019B02231D
:10038C0002930393059302A9014800F03BFFE8E7B1
:10039C000008014070B4036A23F001030362036A8E
:1003AC004668826922F073020C6844EA020523F065
:1003BC0002028B6813430D4CA04209D00B4CA04297
:1003CC000DD0466085614A684263036270BC704719
:1003DC0023F00803CA68134323F00403EEE726F462
:1003EC0040764A6932438E691643EAE7002C014095
:1003FC0030B4036A23F480730362036A4568C269EC
:10040C0022F073020C68224323F400738C6843EAD5
:10041C0004230F4CA04209D00D4CA0420ED04560D5
:10042C00C2614A68C263036230BC704723F4006344
:10043C00CC6843EA042323F48063EDE725F44055AC
:10044C004C6945EA04158C6945EA0415E7E700BFD9
:10045C00002C014030B4036A23F480530362036A16
:10046C004468C26922F4E6420D6842EA052223F48C
:10047C0000538D6843EA0533074DA84206D044600B
:10048C00C2614A680264036230BC704724F4804441
:10049C004D6944EA8514F2E7002C014010B4036A5C
:1004AC00046A24F001040462846924F0F00C4CEA20
:1004BC00021223F00A030B438261036210BC7047E3
:1004CC0010B4046A24F0100404628469036A24F4EE
:1004DC00704C4CEA023223F0A00343EA0113826110
:1004EC00036210BC7047836823F070030B4343F026
:1004FC0007038360704770477047704770477047B9
:10050C00704710B5044603681A6912F0020F11D037
:10051C00DA6812F0020F0DD06FF002021A6101239B
:10052C00037703689B6913F0030F70D0FFF7E6FFA6
:10053C000023237723681A6912F0040F12D0DA68AB
:10054C0012F0040F0ED06FF004021A61022323770D
:10055C0023689B6913F4407F5FD02046FFF7CEFFE2
:10056C000023237723681A6912F0080F12D0DA6877
:10057C0012F0080F0ED06FF008021A6104232377D3
:10058C002368DB6913F0030F4ED02046FFF7B6FF4C
:10059C000023237723681A6912F0100F12D0DA683F
:1005AC0012F0100F0ED06FF010021A61082323778F
:1005BC002368DB6913F4407F3DD02046FFF79EFF94
:1005CC000023237723681A6912F0010F03D0DA682D
:1005DC0012F0010F36D123681A6912F0800F03D084
:1005EC00DA6812F0800F34D123681A6912F0400FC8
:1005FC0003D0DA6812F0400F32D123681A6912F076
:10060C00200F03D0DA6812F0200F30D110BDFFF7A5
:10061C0074FF2046FFF773FF8AE72046FFF76DFF54
:10062C002046FFF76CFF9BE72046FFF766FF20464E
:10063C00FFF765FFACE72046FFF75FFF2046FFF7AB
:10064C005EFFBDE76FF001021A612046FFF754FF11
:10065C00C1E76FF080021A61204600F068FAC3E728
:10066C006FF040021A612046FFF74AFFC5E76FF0B2
:10067C0020021A61204600F059FAC7E703681B4AAA
:10068C0090420AD0B0F1804F07D0A2F5943290423C
:10069C0003D002F58062904203D123F070034A68C4
:1006AC001343124A90420AD0B0F1804F07D0A2F502
:1006BC009432904203D002F58062904203D123F42D
:1006CC004073CA68134323F080034A6913430360E1
:1006DC008B68C3620B688362044B984202D001237F
:1006EC00436170470B690363F9E700BF002C0140BD
:1006FC0040B310B5044690F83D30F3B1022384F8B2
:10070C003D30214651F8040BFFF7B8FF012384F864
:10071C00463084F83E3084F83F3084F8403084F81A
:10072C00413084F8423084F8433084F8443084F803
:10073C00453084F83D30002010BD80F83C30FFF788
:10074C00E7FDDBE70120704740B310B5044690F895
:10075C003D30F3B1022384F83D30214651F8040BAF
:10076C00FFF78CFF012384F8463084F83E3084F880
:10077C003F3084F8403084F8413084F8423084F8BB
:10078C00433084F8443084F8453084F83D30002000
:10079C0010BD80F83C30FFF7AEFEDBE70120704760
:1007AC0030B4036A23F010030362036A446882695D
:1007BC0022F4E6420D6842EA052223F020038D68FC
:1007CC0043EA05130E4DA84209D00D4DA8420ED098
:1007DC00446082614A688263036230BC704723F0D4
:1007EC008003CD6843EA051323F04003EDE724F4BE
:1007FC0040644D6944EA85048D6944EA8504E7E761
:10080C00002C014038B590F83C30012B60D00446E8
:10081C000D46012380F83C300C2A1AD8DFE802F090
:10082C00071919191D1919193119191944000068DA
:10083C00FFF7B0FD2268936943F0080393612268C7
:10084C00936923F0040393612268936929690B432C
:10085C009361002084F83C0038BD0068FFF7A0FFCE
:10086C002268936943F4006393612268936923F4CB
:10087C008063936122689369296943EA0123936138
:10088C00E7E70068FFF7B4FD2268D36943F008037B
:10089C00D3612268D36923F00403D3612268D3693E
:1008AC0029690B43D361D4E70068FFF7D3FD2268B5
:1008BC00D36943F40063D3612268D36923F4806362
:1008CC00D3612268D369296943EA0123D361C0E764
:1008DC000220C1E710B4846824F47F4C42EA03225E
:1008EC000A4342EA0C02826010BC704790F83C301C
:1008FC00012B66D010B50446012380F83C3002234E
:10090C0080F83D300268936823F47F4323F077032B
:10091C0093600B68602B40D022D8402B47D00BD96A
:10092C00502B0ED1CA6849680068FFF7B7FD5021FB
:10093C002068FFF7D8FD04E0202B0CD008D9302B11
:10094C0009D0012384F83D30002084F83C0010BD10
:10095C000BB1102BF5D119462068FFF7C4FDF0E759
:10096C00702B0ED0B3F5005FEBD1CB684A68896869
:10097C000068FFF7AFFF2268936843F480439360ED
:10098C00DFE7CB684A6889680068FFF7A3FF226835
:10099C00936843F077039360D3E7CA6849680068AB
:1009AC00FFF78EFD60212068FFF79DFDC9E7CA683F
:1009BC0049680068FFF772FD40212068FFF793FD3E
:1009CC00BFE70220704701F01F01012303FA01FC6D
:1009DC00036A23EA0C030362036A02FA01F10B4374
:1009EC000362704710B50446084651BB94F83E307C
:1009FC00DBB2013B18BF0123002B5BD1002839D19E
:100A0C00022384F83E30012201462068FFF7DBFF09
:100A1C0023682A4A93423DD02368284A93423ED009
:100A2C00B3F1804F3BD0A2F59432934237D002F50C
:100A3C008062934233D01A6842F001021A6000209F
:100A4C0039E0042908D008290DD094F84130DBB2E4
:100A5C00013B18BF0123CFE794F83F30DBB2013BD9
:100A6C0018BF0123C8E794F84030DBB2013B18BF34
:100A7C000123C1E7042805D0082807D0022384F8F5
:100A8C004130C0E7022384F83F30BCE7022384F8EE
:100A9C004030B8E75A6C42F400425A64BCE79A689A
:100AAC0002F00702062A07D01A6842F001021A6007
:100ABC00002000E0012010BD0020FCE7002C0140CC
:100ACC0090F83C30012B2CD010B4012380F83C3032
:100ADC00022380F83D3003685A689C6822F0700C41
:100AEC000A6842EA0C025A6003680F4A93420AD021
:100AFC00B3F1804F07D0A2F59432934203D002F5A4
:100B0C008062934204D124F080044A6814439C60B0
:100B1C00012380F83D30002380F83C30184610BC8F
:100B2C0070470220704700BF002C0140704770478F
:100B3C0010B504460E4B18784FF47A73B3FBF0F3F0
:100B4C000C4A1068B0FBF3F000F0C6FC68B90F2C2F
:100B5C0001D901200AE0002221464FF0FF3000F0BD
:100B6C0075FC054B1C60002000E0012010BD00BF8F
:100B7C0000000020080000200400002008B5074AEF
:100B8C00136843F010031360032000F04DFC0F209A
:100B9C00FFF7CEFFFFF79AFB002008BD00200240B4
:100BAC00034A1168034B1B780B441360704700BF5A
:100BBC007000002000000020014B1868704700BF37
:100BCC007000002038B50446FFF7F6FF0546B4F177
:100BDC00FF3F02D0044B1B781C44FFF7EDFF401B7A
:100BEC00A042FAD338BD00BF0000002082B0084BF1
:100BFC001B68084AA2FB03235B0A00FB03F3019367
:100C0C0000BF019B5A1E0192002BF9D102B0704714
:100C1C0008000020D34D6210002800F0F18170B55F
:100C2C0082B00446036813F0010F2CD0994B5B681B
:100C3C0003F00C03042B1DD0964B5B6803F00C03E4
:100C4C00082B12D06368B3F5803F41D0002B55D1EF
:100C5C0003F1804303F504331A6822F480321A60DE
:100C6C001A6822F480221A6037E08A4B5B6813F40E
:100C7C00803FE7D0874B1B6813F4003F03D06368B9
:100C8C00002B00F0BF81236813F0020F75D0814B4D
:100C9C005B6813F00C0F5FD07E4B5B6803F00C03AA
:100CAC00082B54D02369002B00F08A807A4B012248
:100CBC001A60FFF781FF0546764B1B6813F0020F95
:100CCC0075D1FFF779FF401B0228F5D903209EE16F
:100CDC00704A136843F480331360636843B3FFF7BF
:100CEC006BFF05466B4B1B6813F4003FCBD1FFF732
:100CFC0063FF401B6428F5D9032088E1B3F5A02FCE
:100D0C0009D0644B1A6822F480321A601A6822F4F3
:100D1C0080221A60E1E703F18043A3F53C331A68A3
:100D2C0042F480221A601A6842F480321A60D4E7C6
:100D3C00FFF742FF0546574B1B6813F4003FA2D048
:100D4C00FFF73AFF401B6428F5D903205FE1514BB4
:100D5C005B6813F4803FA5D14E4B1B6813F0020F58
:100D6C0003D02369012B40F04F814A4A136823F0CA
:100D7C00F803616943EAC1031360236813F0080F99
:100D8C0033D0A369002B5CD0434B0122C3F88024E1
:100D9C00FFF712FF05463F4B5B6A13F0020F21D1A0
:100DAC00FFF70AFF401B0228F5D903202FE1394A2F
:100DBC00136823F0F803616943EAC1031360DCE7AD
:100DCC00354B00221A60FFF7F7FE0546314B1B68C6
:100DDC0013F0020FD1D0FFF7EFFE401B0228F5D91C
:100DEC00032014E10120FFF701FF236813F0040F27
:100DFC0000F09680274BDB6913F0805F34D1254BD4
:100E0C00DA6942F08052DA61DB6903F080530193B6
:100E1C00019B0125214B1B6813F4807F26D0E368CE
:100E2C00012B3DD0002B53D103F1804303F5043348
:100E3C001A6A22F001021A621A6A22F004021A6279
:100E4C0033E0154B0022C3F88024FFF7B5FE0546AE
:100E5C00104B5B6A13F0020FC7D0FFF7ADFE401BBF
:100E6C000228F5D90320D2E00025D3E70B4A1368FA
:100E7C0043F480731360FFF79FFE0646074B1B6815
:100E8C0013F4807FCBD1FFF797FE801B6428F5D934
:100E9C000320BCE000100240000042420070004001
:100EAC005F4A136A43F001031362E36833B3FFF73D
:100EBC0083FE06465A4B1B6A13F0020F2FD1FFF725
:100ECC007BFE801B41F288339842F3D903209EE0CD
:100EDC00052B09D0524B1A6A22F001021A621A6AC7
:100EEC0022F004021A62E0E74D4B1A6A42F0040247
:100EFC001A621A6A42F001021A62D6E7FFF75CFE28
:100F0C000646474B1B6A13F0020F08D0FFF754FE3E
:100F1C00801B41F288339842F3D9032077E0E5B97E
:100F2C00E369002B72D03E4A526802F00C02082A88
:100F3C0056D0022B17D03B4B00221A66FFF73CFE13
:100F4C000446374B1B6813F0007F47D0FFF734FE85
:100F5C00001B0228F5D9032059E0314AD36923F04C
:100F6C008053D361DCE72F4B00221A66FFF724FE77
:100F7C0005462B4B1B6813F0007F06D0FFF71CFEB9
:100F8C00401B0228F5D9032041E0236AB3F5803FCA
:100F9C001AD023494B6823F47413226A606A024303
:100FAC0013434B601F4B01221A66FFF705FE0446E4
:100FBC001B4B1B6813F0007F0ED1FFF7FDFD001BD0
:100FCC000228F5D9032022E0154A536823F4003394
:100FDC00A1680B435360DCE7002018E0002016E00A
:100FEC00012B16D00E4B5B6803F48031226A9142C0
:100FFC0011D103F47013626A93420ED1002006E003
:10100C0001207047012002E0012000E0002002B026
:10101C0070BD0120FBE70120F9E70120F7E700BFD5
:10102C00001002400000424286B0174B0FCB0DF16E
:10103C00180C0CE90F0040F20123ADF80430134BEF
:10104C005B6803F00C02082A02D0114806B0704706
:10105C00C3F3834218326A4412F8100C13F4803F25
:10106C000DD00A4B5B68C3F3404318336B4413F841
:10107C00143C074A02FB00F0B0FBF3F0E6E7054B2B
:10108C0003FB00F0E2E700BFCC15000800100240A3
:10109C0000127A0000093D00002800F0A08070B515
:1010AC000D460446524B1B6803F007038B420BD2D0
:1010BC004F4A136823F007030B431360136803F0C4
:1010CC0007038B4240F08D80236813F0020F17D07A
:1010DC0013F0040F04D0474A536843F4E0635360A1
:1010EC00236813F0080F04D0424A536843F460534A
:1010FC005360404A536823F0F003A1680B435360DC
:10110C00236813F0010F31D06368012B20D0022B20
:10111C0025D0384A126812F0020F64D035494A685B
:10112C0022F0030213434B60FFF746FD0646314B9A
:10113C005B6803F00C036268B3EB820F16D0FFF709
:10114C003BFD801B41F288339842F0D9032045E0E7
:10115C00284A126812F4003FE0D101203EE0254AF3
:10116C00126812F0007FD9D1012037E0204B1B68A8
:10117C0003F00703AB420AD91D4A136823F0070397
:10118C002B431360136803F00703AB422DD1236884
:10119C0013F0040F06D0174A536823F4E063E16898
:1011AC000B435360236813F0080F07D0114A5368A0
:1011BC0023F46053216943EAC1035360FFF734FF02
:1011CC000C4B5B68C3F303130B4AD35CD8400B4B3B
:1011DC0018600B4B1868FFF7ABFC002070BD0120AA
:1011EC0070470120FAE70120F8E70120F6E700BF7D
:1011FC000020024000100240E0150008080000200A
:10120C000400002070B582B00024A446A6E0804DF6
:10121C00AA4210D007D97F4DAA420CD005F58035D3
:10122C00AA4208D013E0A5F58015AA4203D005F513
:10123C007025AA4207D18A68002A58D0012A51D0B9
:10124C004361082403E0A5F58015AA42F3D0BEF152
:10125C00FF0F4ED80646BEF1FF0F4CD84FEA8C025A
:10126C0033680F25954023EA050304FA02F2134371
:10127C0033604B6813F0805F6ED0674B9A6942F015
:10128C0001029A619B6903F001030193019B4FEAF0
:10129C009C02951C614B53F825600CF003039D00D8
:1012AC000F23AB4026EA03065D4B984229D003F589
:1012BC008063984200F08E8003F58063984200F0C2
:1012CC008B8003F58063984219D004231AE0CC6814
:1012DC00BDE7CC680434BAE7CC680834B7E7CC680F
:1012EC000C34B4E703610824B1E70024AFE704240D
:1012FC00ADE7061DAFE7ACF108029200B0E703239F
:10130C0000E00023AB4033430232444D45F8223019
:10131C004B6813F4803F61D0424A136843EA0E03D2
:10132C0013604B6813F4003F5ED03E4A536843EAA7
:10133C000E0353604B6813F4801F5BD0394A9368DB
:10134C0043EA0E0393604B6813F4001F58D0354AE0
:10135C00D36843EA0E03D3600CF1010C0A6832FA2D
:10136C000CF353D0012303FA0CF302EA030E33EA15
:10137C000202F1D14A68122A3FF649AF122A3FF60F
:10138C0066AF01A555F822F043120008DB120008E5
:10139C00E5120008F71200085B1200085B12000847
:1013AC005B1200085B1200085B1200085B1200085D
:1013BC005B1200085B1200085B1200085B1200084D
:1013CC005B1200085B1200085B120008DF120008B9
:1013DC00EB120008012395E7022393E7114A1368E7
:1013EC0023EA0E0313609CE70E4A536823EA0E03AC
:1013FC0053609FE70B4A936823EA0E039360A2E7BE
:10140C00084AD36823EA0E03D360A5E702B070BD87
:10141C0000002210000031100010024000000140BA
:10142C000008014000040140074AD36823F4E0633C
:10143C001B041B0C000200F4E060034343F0BF6389
:10144C0043F40033D360704700ED00E000B5194B56
:10145C00DB68C3F30223C3F1070CBCF1040F28BFF4
:10146C004FF0040C03F1040EBEF1060F18D9033B28
:10147C004FF0FF3E0EFA0CFC21EA0C0199400EFADB
:10148C0003F322EA0303194300280BDB0901C9B259
:10149C0000F1604000F5614080F800135DF804FB3A
:1014AC000023E5E700F00F000901C9B2024B195403
:1014BC00F4E700BF00ED00E014ED00E0002807DBCE
:1014CC0000F01F02400901239340024A42F82030E9
:1014DC00704700BF00E100E00138B0F1807F0BD213
:1014EC004FF0E0235861054AF02182F823100020C8
:1014FC00986107221A6170470120704700ED00E0E7
:10150C00704700000C480D490D4A002302E0D458E6
:10151C00C4500433C4188C42F9D30A4A0A4C002331
:10152C0001E013600432A242FBD3FFF7E9FF00F0A5
:10153C000FF8FEF79BFE7047000000200C00002007
:10154C00F81500080C00002074000020FEE70000D5
:10155C0070B500260C4D0D4C641BA410A64209D18D
:10156C0000F022F800260A4D0A4C641BA410A64277
:10157C0005D170BD55F8043B98470136EEE755F898
:10158C00043B98470136F2E7F0150008F015000807
:10159C00F0150008F415000803460244934200D1EC
:1015AC00704703F8011BF9E7F8B500BFF8BC08BC9D
:1015BC009E467047F8B500BFF8BC08BC9E46704705
:1015CC0002030405060708090A0B0C0D0E0F101078
:1015DC0000000000000000000000000001020304F5
:0415EC0006070809DD
:0415F00031010008BD
:0415F4000D010008DD
:0C15F80001000000100000000024F400BE
:0400000508001511C9
:00000001FF
